{
  "_format": "hh-sol-artifact-1",
  "contractName": "SignatureRegistry",
  "sourceName": "contracts/SignatureRegistry.sol",
  "abi": [
    {
      "inputs": [],
      "stateMutability": "nonpayable",
      "type": "constructor"
    },
    {
      "inputs": [],
      "name": "ECDSAInvalidSignature",
      "type": "error"
    },
    {
      "inputs": [
        {
          "internalType": "uint256",
          "name": "length",
          "type": "uint256"
        }
      ],
      "name": "ECDSAInvalidSignatureLength",
      "type": "error"
    },
    {
      "inputs": [
        {
          "internalType": "bytes32",
          "name": "s",
          "type": "bytes32"
        }
      ],
      "name": "ECDSAInvalidSignatureS",
      "type": "error"
    },
    {
      "inputs": [],
      "name": "InvalidShortString",
      "type": "error"
    },
    {
      "inputs": [
        {
          "internalType": "string",
          "name": "str",
          "type": "string"
        }
      ],
      "name": "StringTooLong",
      "type": "error"
    },
    {
      "anonymous": false,
      "inputs": [],
      "name": "EIP712DomainChanged",
      "type": "event"
    },
    {
      "anonymous": false,
      "inputs": [
        {
          "indexed": true,
          "internalType": "address",
          "name": "signer",
          "type": "address"
        },
        {
          "indexed": true,
          "internalType": "bytes32",
          "name": "documentHash",
          "type": "bytes32"
        },
        {
          "indexed": false,
          "internalType": "uint256",
          "name": "timestamp",
          "type": "uint256"
        },
        {
          "indexed": false,
          "internalType": "bytes32",
          "name": "proofId",
          "type": "bytes32"
        }
      ],
      "name": "SignatureRecorded",
      "type": "event"
    },
    {
      "inputs": [],
      "name": "ACUSE_RECIBO_TYPEHASH",
      "outputs": [
        {
          "internalType": "bytes32",
          "name": "",
          "type": "bytes32"
        }
      ],
      "stateMutability": "view",
      "type": "function"
    },
    {
      "inputs": [],
      "name": "admin",
      "outputs": [
        {
          "internalType": "address",
          "name": "",
          "type": "address"
        }
      ],
      "stateMutability": "view",
      "type": "function"
    },
    {
      "inputs": [],
      "name": "eip712Domain",
      "outputs": [
        {
          "internalType": "bytes1",
          "name": "fields",
          "type": "bytes1"
        },
        {
          "internalType": "string",
          "name": "name",
          "type": "string"
        },
        {
          "internalType": "string",
          "name": "version",
          "type": "string"
        },
        {
          "internalType": "uint256",
          "name": "chainId",
          "type": "uint256"
        },
        {
          "internalType": "address",
          "name": "verifyingContract",
          "type": "address"
        },
        {
          "internalType": "bytes32",
          "name": "salt",
          "type": "bytes32"
        },
        {
          "internalType": "uint256[]",
          "name": "extensions",
          "type": "uint256[]"
        }
      ],
      "stateMutability": "view",
      "type": "function"
    },
    {
      "inputs": [
        {
          "internalType": "bytes32",
          "name": "_proofId",
          "type": "bytes32"
        }
      ],
      "name": "getProof",
      "outputs": [
        {
          "components": [
            {
              "internalType": "address",
              "name": "signer",
              "type": "address"
            },
            {
              "internalType": "bytes32",
              "name": "documentHash",
              "type": "bytes32"
            },
            {
              "internalType": "uint256",
              "name": "timestamp",
              "type": "uint256"
            },
            {
              "internalType": "bytes",
              "name": "signature",
              "type": "bytes"
            },
            {
              "internalType": "bool",
              "name": "verified",
              "type": "bool"
            }
          ],
          "internalType": "struct SignatureRegistry.SignatureProof",
          "name": "",
          "type": "tuple"
        }
      ],
      "stateMutability": "view",
      "type": "function"
    },
    {
      "inputs": [
        {
          "internalType": "bytes32",
          "name": "",
          "type": "bytes32"
        }
      ],
      "name": "proofs",
      "outputs": [
        {
          "internalType": "address",
          "name": "signer",
          "type": "address"
        },
        {
          "internalType": "bytes32",
          "name": "documentHash",
          "type": "bytes32"
        },
        {
          "internalType": "uint256",
          "name": "timestamp",
          "type": "uint256"
        },
        {
          "internalType": "bytes",
          "name": "signature",
          "type": "bytes"
        },
        {
          "internalType": "bool",
          "name": "verified",
          "type": "bool"
        }
      ],
      "stateMutability": "view",
      "type": "function"
    },
    {
      "inputs": [
        {
          "internalType": "bytes32",
          "name": "_documentHash",
          "type": "bytes32"
        },
        {
          "internalType": "address",
          "name": "_signer",
          "type": "address"
        },
        {
          "internalType": "uint256",
          "name": "_timestamp",
          "type": "uint256"
        },
        {
          "internalType": "bytes",
          "name": "_signature",
          "type": "bytes"
        }
      ],
      "name": "recordSignature",
      "outputs": [],
      "stateMutability": "nonpayable",
      "type": "function"
    },
    {
      "inputs": [
        {
          "internalType": "bytes32",
          "name": "_proofId",
          "type": "bytes32"
        }
      ],
      "name": "verifyProof",
      "outputs": [
        {
          "internalType": "bool",
          "name": "",
          "type": "bool"
        }
      ],
      "stateMutability": "view",
      "type": "function"
    }
  ],
  "bytecode": "0x61016060405234801562000011575f80fd5b50604080518082018252601081526f115e1c195c9a595b98da58531959d85b60821b602080830191909152825180840190935260018352603160f81b90830152906200005e825f6200011d565b610120526200006f8160016200011d565b61014052815160208084019190912060e052815190820120610100524660a052620000fc60e05161010051604080517f8b73c3c69bb8fe3d512ecc4cf759cc79239f7b179b0ffacaa9a75d522b39400f60208201529081019290925260608201524660808201523060a08201525f9060c00160405160208183030381529060405280519060200120905090565b60805250503060c052600380546001600160a01b031916331790556200037c565b5f6020835110156200013c57620001348362000155565b90506200014f565b816200014984826200023e565b5060ff90505b92915050565b5f80829050601f815111156200018b578260405163305a27a960e01b81526004016200018291906200030a565b60405180910390fd5b8051620001988262000358565b179392505050565b634e487b7160e01b5f52604160045260245ffd5b600181811c90821680620001c957607f821691505b602082108103620001e857634e487b7160e01b5f52602260045260245ffd5b50919050565b601f8211156200023957805f5260205f20601f840160051c81016020851015620002155750805b601f840160051c820191505b8181101562000236575f815560010162000221565b50505b505050565b81516001600160401b038111156200025a576200025a620001a0565b62000272816200026b8454620001b4565b84620001ee565b602080601f831160018114620002a8575f8415620002905750858301515b5f19600386901b1c1916600185901b17855562000302565b5f85815260208120601f198616915b82811015620002d857888601518255948401946001909101908401620002b7565b5085821015620002f657878501515f19600388901b60f8161c191681555b505060018460011b0185555b505050505050565b5f602080835283518060208501525f5b8181101562000338578581018301518582016040015282016200031a565b505f604082860101526040601f19601f8301168501019250505092915050565b80516020808301519190811015620001e8575f1960209190910360031b1b16919050565b60805160a05160c05160e051610100516101205161014051610ef6620003ce5f395f61070801525f6106d701525f61080701525f6107df01525f61073a01525f61076401525f61078e0152610ef65ff3fe608060405234801561000f575f80fd5b506004361061007a575f3560e01c806384b0196e1161005857806384b0196e146100e0578063b142b4ec146100fb578063b5a5662b14610130578063f851a44014610165575f80fd5b80631b80bb3a1461007e578063444d95b0146100a757806352a9b35a146100cb575b5f80fd5b61009161008c366004610b31565b610190565b60405161009e9190610b8b565b60405180910390f35b6100ba6100b5366004610b31565b6102a2565b60405161009e959493929190610be4565b6100de6100d9366004610c24565b610365565b005b6100e8610634565b60405161009e9796959493929190610cbd565b610120610109366004610b31565b5f9081526002602052604090206004015460ff1690565b604051901515815260200161009e565b6101577f5cdf0bfb6342df5418f5cfbf3ead9c8482d33273e863fc848e366ac06617936b81565b60405190815260200161009e565b600354610178906001600160a01b031681565b6040516001600160a01b03909116815260200161009e565b6040805160a0810182525f8082526020820181905291810182905260608082015260808101919091525f82815260026020818152604092839020835160a08101855281546001600160a01b03168152600182015492810192909252918201549281019290925260038101805460608401919061020b90610d54565b80601f016020809104026020016040519081016040528092919081815260200182805461023790610d54565b80156102825780601f1061025957610100808354040283529160200191610282565b820191905f5260205f20905b81548152906001019060200180831161026557829003601f168201915b50505091835250506004919091015460ff16151560209091015292915050565b600260208190525f918252604090912080546001820154928201546003830180546001600160a01b03909316949391926102db90610d54565b80601f016020809104026020016040519081016040528092919081815260200182805461030790610d54565b80156103525780601f1061032957610100808354040283529160200191610352565b820191905f5260205f20905b81548152906001019060200180831161033557829003601f168201915b5050506004909301549192505060ff1685565b604181146103ba5760405162461bcd60e51b815260206004820152601860248201527f496e76616c6964207369676e6174757265206c656e677468000000000000000060448201526064015b60405180910390fd5b604080517f5cdf0bfb6342df5418f5cfbf3ead9c8482d33273e863fc848e366ac06617936b60208201529081018690526001600160a01b0385166060820152608081018490525f9060a0016040516020818303038152906040528051906020012090505f61042782610676565b90505f61046b85858080601f0160208091040260200160405190810160405280939291908181526020018383808284375f9201919091525086939250506106a89050565b9050866001600160a01b0316816001600160a01b0316146104c25760405162461bcd60e51b8152602060048201526011602482015270496e76616c6964207369676e617475726560781b60448201526064016103b1565b60408051602081018a90526bffffffffffffffffffffffff1960608a901b1691810191909152605481018790525f906074016040516020818303038152906040528051906020012090506040518060a00160405280896001600160a01b031681526020018a815260200188815260200187878080601f0160208091040260200160405190810160405280939291908181526020018383808284375f9201829052509385525050600160209384018190528583526002808552604093849020865181546001600160a01b0319166001600160a01b039091161781559486015191850191909155918401519183019190915550606082015160038201906105c79082610dec565b50608091909101516004909101805460ff191691151591909117905560408051888152602081018390528a916001600160a01b038b16917fb971c23eefbde71befcaf86744c6e61adbac0f64cd94b622e8aae43fa7360452910160405180910390a3505050505050505050565b5f6060805f805f60606106456106d0565b61064d610701565b604080515f80825260208201909252600f60f81b9b939a50919850469750309650945092509050565b5f6106a261068261072e565b8360405161190160f01b8152600281019290925260228201526042902090565b92915050565b5f805f806106b68686610857565b9250925092506106c682826108a0565b5090949350505050565b60606106fc7f00000000000000000000000000000000000000000000000000000000000000005f61095c565b905090565b60606106fc7f0000000000000000000000000000000000000000000000000000000000000000600161095c565b5f306001600160a01b037f00000000000000000000000000000000000000000000000000000000000000001614801561078657507f000000000000000000000000000000000000000000000000000000000000000046145b156107b057507f000000000000000000000000000000000000000000000000000000000000000090565b6106fc604080517f8b73c3c69bb8fe3d512ecc4cf759cc79239f7b179b0ffacaa9a75d522b39400f60208201527f0000000000000000000000000000000000000000000000000000000000000000918101919091527f000000000000000000000000000000000000000000000000000000000000000060608201524660808201523060a08201525f9060c00160405160208183030381529060405280519060200120905090565b5f805f835160410361088e576020840151604085015160608601515f1a61088088828585610a05565b955095509550505050610899565b505081515f91506002905b9250925092565b5f8260038111156108b3576108b3610eac565b036108bc575050565b60018260038111156108d0576108d0610eac565b036108ee5760405163f645eedf60e01b815260040160405180910390fd5b600282600381111561090257610902610eac565b036109235760405163fce698f760e01b8152600481018290526024016103b1565b600382600381111561093757610937610eac565b03610958576040516335e2f38360e21b8152600481018290526024016103b1565b5050565b606060ff83146109765761096f83610acd565b90506106a2565b81805461098290610d54565b80601f01602080910402602001604051908101604052809291908181526020018280546109ae90610d54565b80156109f95780601f106109d0576101008083540402835291602001916109f9565b820191905f5260205f20905b8154815290600101906020018083116109dc57829003601f168201915b505050505090506106a2565b5f80807f7fffffffffffffffffffffffffffffff5d576e7357a4501ddfe92f46681b20a0841115610a3e57505f91506003905082610ac3565b604080515f808252602082018084528a905260ff891692820192909252606081018790526080810186905260019060a0016020604051602081039080840390855afa158015610a8f573d5f803e3d5ffd5b5050604051601f1901519150506001600160a01b038116610aba57505f925060019150829050610ac3565b92505f91508190505b9450945094915050565b60605f610ad983610b0a565b6040805160208082528183019092529192505f91906020820181803683375050509182525060208101929092525090565b5f60ff8216601f8111156106a257604051632cd44ac360e21b815260040160405180910390fd5b5f60208284031215610b41575f80fd5b5035919050565b5f81518084525f5b81811015610b6c57602081850181015186830182015201610b50565b505f602082860101526020601f19601f83011685010191505092915050565b6020815260018060a01b03825116602082015260208201516040820152604082015160608201525f606083015160a06080840152610bcc60c0840182610b48565b90506080840151151560a08401528091505092915050565b60018060a01b038616815284602082015283604082015260a060608201525f610c1060a0830185610b48565b905082151560808301529695505050505050565b5f805f805f60808688031215610c38575f80fd5b8535945060208601356001600160a01b0381168114610c55575f80fd5b935060408601359250606086013567ffffffffffffffff80821115610c78575f80fd5b818801915088601f830112610c8b575f80fd5b813581811115610c99575f80fd5b896020828501011115610caa575f80fd5b9699959850939650602001949392505050565b60ff60f81b881681525f602060e06020840152610cdd60e084018a610b48565b8381036040850152610cef818a610b48565b606085018990526001600160a01b038816608086015260a0850187905284810360c0860152855180825260208088019350909101905f5b81811015610d4257835183529284019291840191600101610d26565b50909c9b505050505050505050505050565b600181811c90821680610d6857607f821691505b602082108103610d8657634e487b7160e01b5f52602260045260245ffd5b50919050565b634e487b7160e01b5f52604160045260245ffd5b601f821115610de757805f5260205f20601f840160051c81016020851015610dc55750805b601f840160051c820191505b81811015610de4575f8155600101610dd1565b50505b505050565b815167ffffffffffffffff811115610e0657610e06610d8c565b610e1a81610e148454610d54565b84610da0565b602080601f831160018114610e4d575f8415610e365750858301515b5f19600386901b1c1916600185901b178555610ea4565b5f85815260208120601f198616915b82811015610e7b57888601518255948401946001909101908401610e5c565b5085821015610e9857878501515f19600388901b60f8161c191681555b505060018460011b0185555b505050505050565b634e487b7160e01b5f52602160045260245ffdfea2646970667358221220ea0fc12c3f4a27bdb6ec345277e56b542a1e73e3abaaafe6fc7b6c4eeee0b55964736f6c63430008180033",
  "linkReferences": {},
  "deployedLinkReferences": {}
}