{
  "_format": "hh-sol-artifact-1",
  "contractName": "TrustSeals",
  "sourceName": "contracts/TrustSeals.sol",
  "abi": [
    {
      "inputs": [],
      "stateMutability": "nonpayable",
      "type": "constructor"
    },
    {
      "inputs": [
        {
          "internalType": "address",
          "name": "owner",
          "type": "address"
        }
      ],
      "name": "OwnableInvalidOwner",
      "type": "error"
    },
    {
      "inputs": [
        {
          "internalType": "address",
          "name": "account",
          "type": "address"
        }
      ],
      "name": "OwnableUnauthorizedAccount",
      "type": "error"
    },
    {
      "anonymous": false,
      "inputs": [
        {
          "indexed": true,
          "internalType": "address",
          "name": "recipient",
          "type": "address"
        },
        {
          "indexed": true,
          "internalType": "string",
          "name": "credentialType",
          "type": "string"
        },
        {
          "indexed": false,
          "internalType": "uint256",
          "name": "tokenId",
          "type": "uint256"
        },
        {
          "indexed": false,
          "internalType": "uint256",
          "name": "expiresAt",
          "type": "uint256"
        }
      ],
      "name": "CredentialIssued",
      "type": "event"
    },
    {
      "anonymous": false,
      "inputs": [
        {
          "indexed": true,
          "internalType": "address",
          "name": "recipient",
          "type": "address"
        },
        {
          "indexed": false,
          "internalType": "uint256",
          "name": "tokenId",
          "type": "uint256"
        }
      ],
      "name": "CredentialRevoked",
      "type": "event"
    },
    {
      "anonymous": false,
      "inputs": [
        {
          "indexed": true,
          "internalType": "address",
          "name": "previousOwner",
          "type": "address"
        },
        {
          "indexed": true,
          "internalType": "address",
          "name": "newOwner",
          "type": "address"
        }
      ],
      "name": "OwnershipTransferred",
      "type": "event"
    },
    {
      "inputs": [
        {
          "internalType": "address",
          "name": "_issuer",
          "type": "address"
        }
      ],
      "name": "addIssuer",
      "outputs": [],
      "stateMutability": "nonpayable",
      "type": "function"
    },
    {
      "inputs": [
        {
          "internalType": "address",
          "name": "",
          "type": "address"
        },
        {
          "internalType": "uint256",
          "name": "",
          "type": "uint256"
        }
      ],
      "name": "credentials",
      "outputs": [
        {
          "internalType": "string",
          "name": "credentialType",
          "type": "string"
        },
        {
          "internalType": "uint256",
          "name": "issuedAt",
          "type": "uint256"
        },
        {
          "internalType": "uint256",
          "name": "expiresAt",
          "type": "uint256"
        },
        {
          "internalType": "bool",
          "name": "revoked",
          "type": "bool"
        },
        {
          "internalType": "string",
          "name": "issuer",
          "type": "string"
        },
        {
          "internalType": "string",
          "name": "ipfsHash",
          "type": "string"
        }
      ],
      "stateMutability": "view",
      "type": "function"
    },
    {
      "inputs": [
        {
          "internalType": "address",
          "name": "_recipient",
          "type": "address"
        }
      ],
      "name": "getCredentials",
      "outputs": [
        {
          "components": [
            {
              "internalType": "string",
              "name": "credentialType",
              "type": "string"
            },
            {
              "internalType": "uint256",
              "name": "issuedAt",
              "type": "uint256"
            },
            {
              "internalType": "uint256",
              "name": "expiresAt",
              "type": "uint256"
            },
            {
              "internalType": "bool",
              "name": "revoked",
              "type": "bool"
            },
            {
              "internalType": "string",
              "name": "issuer",
              "type": "string"
            },
            {
              "internalType": "string",
              "name": "ipfsHash",
              "type": "string"
            }
          ],
          "internalType": "struct TrustSeals.Credential[]",
          "name": "",
          "type": "tuple[]"
        }
      ],
      "stateMutability": "view",
      "type": "function"
    },
    {
      "inputs": [
        {
          "internalType": "address",
          "name": "_recipient",
          "type": "address"
        },
        {
          "internalType": "string",
          "name": "_credentialType",
          "type": "string"
        }
      ],
      "name": "hasValidCredential",
      "outputs": [
        {
          "internalType": "bool",
          "name": "",
          "type": "bool"
        }
      ],
      "stateMutability": "view",
      "type": "function"
    },
    {
      "inputs": [
        {
          "internalType": "address",
          "name": "_recipient",
          "type": "address"
        },
        {
          "internalType": "string",
          "name": "_credentialType",
          "type": "string"
        },
        {
          "internalType": "uint256",
          "name": "_expiryDays",
          "type": "uint256"
        },
        {
          "internalType": "string",
          "name": "_ipfsHash",
          "type": "string"
        }
      ],
      "name": "issueCredential",
      "outputs": [],
      "stateMutability": "nonpayable",
      "type": "function"
    },
    {
      "inputs": [
        {
          "internalType": "address",
          "name": "",
          "type": "address"
        }
      ],
      "name": "issuers",
      "outputs": [
        {
          "internalType": "bool",
          "name": "",
          "type": "bool"
        }
      ],
      "stateMutability": "view",
      "type": "function"
    },
    {
      "inputs": [],
      "name": "owner",
      "outputs": [
        {
          "internalType": "address",
          "name": "",
          "type": "address"
        }
      ],
      "stateMutability": "view",
      "type": "function"
    },
    {
      "inputs": [
        {
          "internalType": "address",
          "name": "_issuer",
          "type": "address"
        }
      ],
      "name": "removeIssuer",
      "outputs": [],
      "stateMutability": "nonpayable",
      "type": "function"
    },
    {
      "inputs": [],
      "name": "renounceOwnership",
      "outputs": [],
      "stateMutability": "nonpayable",
      "type": "function"
    },
    {
      "inputs": [
        {
          "internalType": "address",
          "name": "_recipient",
          "type": "address"
        },
        {
          "internalType": "uint256",
          "name": "_tokenId",
          "type": "uint256"
        }
      ],
      "name": "revokeCredential",
      "outputs": [],
      "stateMutability": "nonpayable",
      "type": "function"
    },
    {
      "inputs": [
        {
          "internalType": "address",
          "name": "newOwner",
          "type": "address"
        }
      ],
      "name": "transferOwnership",
      "outputs": [],
      "stateMutability": "nonpayable",
      "type": "function"
    }
  ],
  "bytecode": "0x608060405234801561000f575f80fd5b50338061003557604051631e4fbdf760e01b81525f600482015260240160405180910390fd5b61003e8161005d565b50335f908152600260205260409020805460ff191660011790556100ac565b5f80546001600160a01b038381166001600160a01b0319831681178455604051919092169283917f8be0079c531659141344cd1fd0a4f28419497f9722a3daafe3b4186f6b6457e09190a35050565b611297806100b95f395ff3fe608060405234801561000f575f80fd5b50600436106100a6575f3560e01c80636cad7f481161006e5780636cad7f48146101455780637106b2fc14610158578063715018a61461016b57806384270608146101735780638da5cb5b14610193578063f2fde38b146101ad575f80fd5b806303cb278a146100aa57806320694db0146100d857806338a7543e146100ed57806347bc70931461011f57806347cad75314610132575b5f80fd5b6100bd6100b8366004610de9565b6101c0565b6040516100cf96959493929190610e54565b60405180910390f35b6100eb6100e6366004610ead565b6103ad565b005b61010f6100fb366004610ead565b60026020525f908152604090205460ff1681565b60405190151581526020016100cf565b6100eb61012d366004610ead565b6103d8565b61010f610140366004610f0b565b610400565b6100eb610153366004610f5a565b6106fa565b6100eb610166366004610de9565b610977565b6100eb610abb565b610186610181366004610ead565b610ace565b6040516100cf9190610fde565b5f546040516001600160a01b0390911681526020016100cf565b6100eb6101bb366004610ead565b610d16565b6001602052815f5260405f2081815481106101d9575f80fd5b905f5260205f2090600602015f9150915050805f0180546101f9906110a2565b80601f0160208091040260200160405190810160405280929190818152602001828054610225906110a2565b80156102705780601f1061024757610100808354040283529160200191610270565b820191905f5260205f20905b81548152906001019060200180831161025357829003601f168201915b5050506001840154600285015460038601546004870180549697939692955060ff9091169350906102a0906110a2565b80601f01602080910402602001604051908101604052809291908181526020018280546102cc906110a2565b80156103175780601f106102ee57610100808354040283529160200191610317565b820191905f5260205f20905b8154815290600101906020018083116102fa57829003601f168201915b50505050509080600501805461032c906110a2565b80601f0160208091040260200160405190810160405280929190818152602001828054610358906110a2565b80156103a35780601f1061037a576101008083540402835291602001916103a3565b820191905f5260205f20905b81548152906001019060200180831161038657829003601f168201915b5050505050905086565b6103b5610d53565b6001600160a01b03165f908152600260205260409020805460ff19166001179055565b6103e0610d53565b6001600160a01b03165f908152600260205260409020805460ff19169055565b6001600160a01b0383165f90815260016020908152604080832080548251818502810185019093528083528493849084015b82821015610638578382905f5260205f2090600602016040518060c00160405290815f82018054610462906110a2565b80601f016020809104026020016040519081016040528092919081815260200182805461048e906110a2565b80156104d95780601f106104b0576101008083540402835291602001916104d9565b820191905f5260205f20905b8154815290600101906020018083116104bc57829003601f168201915b50505091835250506001820154602082015260028201546040820152600382015460ff1615156060820152600482018054608090920191610519906110a2565b80601f0160208091040260200160405190810160405280929190818152602001828054610545906110a2565b80156105905780601f1061056757610100808354040283529160200191610590565b820191905f5260205f20905b81548152906001019060200180831161057357829003601f168201915b505050505081526020016005820180546105a9906110a2565b80601f01602080910402602001604051908101604052809291908181526020018280546105d5906110a2565b80156106205780601f106105f757610100808354040283529160200191610620565b820191905f5260205f20905b81548152906001019060200180831161060357829003601f168201915b50505050508152505081526020019060010190610432565b5050505090505f5b81518110156106ed5784846040516106599291906110da565b6040518091039020828281518110610673576106736110e9565b60200260200101515f0151805190602001201480156106ad575081818151811061069f5761069f6110e9565b602002602001015160600151155b80156106d55750428282815181106106c7576106c76110e9565b602002602001015160400151115b156106e5576001925050506106f3565b600101610640565b505f9150505b9392505050565b335f9081526002602052604090205460ff166107555760405162461bcd60e51b81526020600482015260156024820152742737ba1030baba3437b934bd32b21034b9b9bab2b960591b60448201526064015b60405180910390fd5b6001600160a01b03861661079f5760405162461bcd60e51b8152602060048201526011602482015270125b9d985b1a59081c9958da5c1a595b9d607a1b604482015260640161074c565b6040805160e06020601f8801819004028201810190925260c081018681525f9282919089908990819085018382808284375f920191909152505050908252504260208201526040016107f48662015180611111565b6107fe904261112e565b81526020015f15158152602001604051806040016040528060168152602001750888aa6a08286909ebe94aaa4928892869ebe86889ab60531b815250815260200184848080601f0160208091040260200160405190810160405280939291908181526020018383808284375f9201829052509390945250506001600160a01b038a168152600160208181526040832080549283018155835290912083519394509092849250600684029091019081906108b790826111a1565b506020820151600182015560408201516002820155606082015160038201805460ff1916911515919091179055608082015160048201906108f890826111a1565b5060a0820151600582019061090d90826111a1565b50505086866040516109209291906110da565b60408051918290038220848201518484526020840152916001600160a01b038b16917fbb542ca1153c13b56dd3d132cb7850d49e7a30ac4412475c3a178d67b6913ca9910160405180910390a35050505050505050565b335f9081526002602052604090205460ff166109cd5760405162461bcd60e51b81526020600482015260156024820152742737ba1030baba3437b934bd32b21034b9b9bab2b960591b604482015260640161074c565b6001600160a01b0382165f908152600160205260409020548110610a235760405162461bcd60e51b815260206004820152600d60248201526c24b73b30b634b2103a37b5b2b760991b604482015260640161074c565b6001600160a01b0382165f908152600160208190526040909120805483908110610a4f57610a4f6110e9565b905f5260205f2090600602016003015f6101000a81548160ff021916908315150217905550816001600160a01b03167ff2fcadf579f414e0330984b542cd6af76f79cc0213bfd8d53adf88364f1d262182604051610aaf91815260200190565b60405180910390a25050565b610ac3610d53565b610acc5f610d7f565b565b6001600160a01b0381165f908152600160209081526040808320805482518185028101850190935280835260609492939192909184015b82821015610d0b578382905f5260205f2090600602016040518060c00160405290815f82018054610b35906110a2565b80601f0160208091040260200160405190810160405280929190818152602001828054610b61906110a2565b8015610bac5780601f10610b8357610100808354040283529160200191610bac565b820191905f5260205f20905b815481529060010190602001808311610b8f57829003601f168201915b50505091835250506001820154602082015260028201546040820152600382015460ff1615156060820152600482018054608090920191610bec906110a2565b80601f0160208091040260200160405190810160405280929190818152602001828054610c18906110a2565b8015610c635780601f10610c3a57610100808354040283529160200191610c63565b820191905f5260205f20905b815481529060010190602001808311610c4657829003601f168201915b50505050508152602001600582018054610c7c906110a2565b80601f0160208091040260200160405190810160405280929190818152602001828054610ca8906110a2565b8015610cf35780601f10610cca57610100808354040283529160200191610cf3565b820191905f5260205f20905b815481529060010190602001808311610cd657829003601f168201915b50505050508152505081526020019060010190610b05565b505050509050919050565b610d1e610d53565b6001600160a01b038116610d4757604051631e4fbdf760e01b81525f600482015260240161074c565b610d5081610d7f565b50565b5f546001600160a01b03163314610acc5760405163118cdaa760e01b815233600482015260240161074c565b5f80546001600160a01b038381166001600160a01b0319831681178455604051919092169283917f8be0079c531659141344cd1fd0a4f28419497f9722a3daafe3b4186f6b6457e09190a35050565b80356001600160a01b0381168114610de4575f80fd5b919050565b5f8060408385031215610dfa575f80fd5b610e0383610dce565b946020939093013593505050565b5f81518084525f5b81811015610e3557602081850181015186830182015201610e19565b505f602082860101526020601f19601f83011685010191505092915050565b60c081525f610e6660c0830189610e11565b87602084015286604084015285151560608401528281036080840152610e8c8186610e11565b905082810360a0840152610ea08185610e11565b9998505050505050505050565b5f60208284031215610ebd575f80fd5b6106f382610dce565b5f8083601f840112610ed6575f80fd5b50813567ffffffffffffffff811115610eed575f80fd5b602083019150836020828501011115610f04575f80fd5b9250929050565b5f805f60408486031215610f1d575f80fd5b610f2684610dce565b9250602084013567ffffffffffffffff811115610f41575f80fd5b610f4d86828701610ec6565b9497909650939450505050565b5f805f805f8060808789031215610f6f575f80fd5b610f7887610dce565b9550602087013567ffffffffffffffff80821115610f94575f80fd5b610fa08a838b01610ec6565b9097509550604089013594506060890135915080821115610fbf575f80fd5b50610fcc89828a01610ec6565b979a9699509497509295939492505050565b5f60208083018184528085518083526040925060408601915060408160051b8701018488015f5b8381101561109457603f19898403018552815160c0815181865261102b82870182610e11565b9150508882015189860152878201518886015260608083015115158187015250608080830151868303828801526110628382610e11565b9250505060a080830151925085820381870152506110808183610e11565b968901969450505090860190600101611005565b509098975050505050505050565b600181811c908216806110b657607f821691505b6020821081036110d457634e487b7160e01b5f52602260045260245ffd5b50919050565b818382375f9101908152919050565b634e487b7160e01b5f52603260045260245ffd5b634e487b7160e01b5f52601160045260245ffd5b8082028115828204841417611128576111286110fd565b92915050565b80820180821115611128576111286110fd565b634e487b7160e01b5f52604160045260245ffd5b601f82111561119c57805f5260205f20601f840160051c8101602085101561117a5750805b601f840160051c820191505b81811015611199575f8155600101611186565b50505b505050565b815167ffffffffffffffff8111156111bb576111bb611141565b6111cf816111c984546110a2565b84611155565b602080601f831160018114611202575f84156111eb5750858301515b5f19600386901b1c1916600185901b178555611259565b5f85815260208120601f198616915b8281101561123057888601518255948401946001909101908401611211565b508582101561124d57878501515f19600388901b60f8161c191681555b505060018460011b0185555b50505050505056fea264697066735822122027e9516359a3401ecd557fadfee156b0b63e7032fd3097aa52129cae721d344164736f6c63430008180033",
  "linkReferences": {},
  "deployedLinkReferences": {}
}